:100000000C9456000C9468000C9468000C946800E2
:100010000C9468000C9468000C9468000C946800C0
:100020000C9468000C9468000C9468000C946800B0
:100030000C9468000C9468000C9468000C946800A0
:100040000C9468000C9468000C9468000C94680090
:100050000C9468000C9468000C9468000C94680080
:100060000C9468000C9468000C9468000C94680070
:100070000C9468000C9468000C9468000C94680060
:100080000C9468000C9468000C9468000C94680050
:100090000C9468000C9468000C9468000C94680040
:1000A0000C9468000C9468000C94680011241FBE26
:1000B000CFEFDAE0DEBFCDBF21E0A0E0B1E001C0CC
:1000C0001D92A230B207E1F70E94EF000C942901C3
:1000D0000C940000DC01FA018C9121E030E001C0B9
:1000E000220F6A95EAF78223880F90819150890F39
:1000F000808308951F93CF93DF93EC01162FCA01DD
:10010000288130E002C0359527956A95E2F7209561
:1001100030952170332730930101209300010E9414
:10012000E800288130E002C0359527951A95E2F75E
:10013000822F8170992720FF0BC021E040910001A0
:10014000509101014130510509F020E0822F90E0EB
:10015000DF91CF911F910895FC01A62F41E050E05F
:1001600002C0440F551F6A95E2F720E130E085E5B3
:1001700090E00BC0009731F4608170E06423752338
:10018000672B19F521503040E9F0BC01660F771F4D
:10019000808190E00A2E02C0959587950A94E2F737
:1001A0008095909581709927862B972B8F3F980784
:1001B00009F7608170E064237523672B19F781E0EC
:1001C00090E008958FEF9FEF089580E090E008950C
:1001D000815091098115E1F79115D1F708950F929A
:1001E000CDB7DEB78FEF84B915B81AB88BB910E068
:1001F00008E0198240E157E264E089E290E00E9461
:100200007A00892B19F085B1802785B965E089E2EC
:1002100090E00E94AC00892B21F085B194E0892701
:1002200085B9AE014F5F5F4F66E089E290E00E94C2
:100230006A00898181323CF0111103C085B1805878
:1002400085B911E0D6CF91E0803209F090E0192312
:06025000D0CFF894FFCFAF
:00000001FF
